

Microchip MPLAB XC8 Assembler V2.46 build 20240104201356 
                                                                                               Wed May 29 22:48:24 2024

Microchip MPLAB XC8 C Compiler v2.46 (Free license) build 20240104201356 Og1 
     1                           	processor	18F47Q10
     2                           	fnconf	rparam,??,?,0
     3                           	pagewidth 120
     4                           	opt	flic
     5                           	psect	nvCOMRAM,global,class=COMRAM,space=1,delta=1,lowdata,noexec
     6                           	psect	cinit,global,reloc=2,class=CODE,delta=1
     7                           	psect	cstackCOMRAM,global,class=COMRAM,space=1,delta=1,lowdata,noexec
     8                           	psect	text0,global,reloc=2,class=CODE,delta=1
     9                           	psect	text1,global,reloc=2,class=CODE,delta=1
    10                           	psect	text2,global,reloc=2,class=CODE,delta=1
    11                           	psect	text3,global,reloc=2,class=CODE,delta=1
    12                           	psect	text4,global,reloc=2,class=CODE,delta=1
    13                           	psect	text5,global,reloc=2,class=CODE,delta=1
    14                           	psect	text6,global,reloc=2,class=CODE,delta=1
    15                           	psect	text7,global,reloc=2,class=CODE,delta=1
    16                           	psect	text8,global,reloc=2,class=CODE,delta=1
    17                           	psect	intcode,global,reloc=2,class=CODE,delta=1
    18                           	psect	text10,global,reloc=2,class=CODE,delta=1
    19                           	psect	smallconst,global,reloc=2,class=SMALLCONST,delta=1,noexec
    20                           	psect	intsave_regs,global,class=BIGRAM,space=1,delta=1,noexec
    21                           	psect	rparam,global,class=COMRAM,space=1,delta=1,noexec
    22                           	psect	temp,global,ovrld,common,class=COMRAM,space=1,delta=1,lowdata
    23                           	psect	config,global,abs,ovrld,class=CONFIG,space=4,delta=1,noexec
    24   000000                     
    25                           ; Generated 23/02/2024 GMT
    26                           ; 
    27                           ; Copyright © 2024, Microchip Technology Inc. and its subsidiaries ("Microchip")
    28                           ; All rights reserved.
    29                           ; 
    30                           ; This software is developed by Microchip Technology Inc. and its subsidiaries ("Microch
      +                          ip").
    31                           ; 
    32                           ; Redistribution and use in source and binary forms, with or without modification, are
    33                           ; permitted provided that the following conditions are met:
    34                           ; 
    35                           ;     1. Redistributions of source code must retain the above copyright notice, this lis
      +                          t of
    36                           ;        conditions and the following disclaimer.
    37                           ; 
    38                           ;     2. Redistributions in binary form must reproduce the above copyright notice, this 
      +                          list
    39                           ;        of conditions and the following disclaimer in the documentation and/or other
    40                           ;        materials provided with the distribution. Publication is not required when
    41                           ;        this file is used in an embedded application.
    42                           ; 
    43                           ;     3. Microchip's name may not be used to endorse or promote products derived from th
      +                          is
    44                           ;        software without specific prior written permission.
    45                           ; 
    46                           ; THIS SOFTWARE IS PROVIDED BY MICROCHIP "AS IS" AND ANY EXPRESS OR IMPLIED WARRANTIES,
    47                           ; INCLUDING, BUT NOT LIMITED TO, THE IMPLIED WARRANTIES OF MERCHANTABILITY AND FITNESS F
      +                          OR
    48                           ; PURPOSE ARE DISCLAIMED.  IN NO EVENT SHALL MICROCHIP BE LIABLE FOR ANY DIRECT, INDIREC
      +                          T,
    49                           ; INCIDENTAL, SPECIAL, EXEMPLARY, OR CONSEQUENTIAL DAMAGES (INCLUDING BUT NOT LIMITED TO
    50                           ; PROCUREMENT OF SUBSTITUTE GOODS OR SERVICES; LOSS OF USE, DATA OR PROFITS; OR BUSINESS
    51                           ; INTERRUPTION) HOWSOEVER CAUSED AND ON ANY THEORY OF LIABILITY, WHETHER IN CONTRACT, ST
      +                          RICT
    52                           ; LIABILITY, OR TORT (INCLUDING NEGLIGENCE OR OTHERWISE) ARISING IN ANY WAY OUT OF THE U
      +                          SE OF
    53                           ; THIS SOFTWARE, EVEN IF ADVISED OF THE POSSIBILITY OF SUCH DAMAGE.
    54                           ; 
    55                           ; 
    56                           ; Code-generator required, PIC18F47Q10 Definitions
    57                           ; 
    58                           ; SFR Addresses
    59   000000                     
    60 ;; Function _INT0_DefaultInterruptHandler is unused but had its address taken
    61   000000                     
    62 ;; Function _INT1_DefaultInterruptHandler is unused but had its address taken
    63   000000                     
    64 ;; Function _INT2_DefaultInterruptHandler is unused but had its address taken
    65   000000                     _IOCEF	set	3874
    66   000000                     _IOCEN	set	3875
    67   000000                     _IOCEP	set	3876
    68   000000                     _IOCCF	set	3861
    69   000000                     _IOCCN	set	3862
    70   000000                     _IOCCP	set	3863
    71   000000                     _IOCBF	set	3853
    72   000000                     _IOCBN	set	3854
    73   000000                     _IOCBP	set	3855
    74   000000                     _INLVLE	set	3877
    75   000000                     _INLVLD	set	3869
    76   000000                     _INLVLC	set	3864
    77   000000                     _INLVLB	set	3856
    78   000000                     _SLRCONE	set	3878
    79   000000                     _SLRCOND	set	3870
    80   000000                     _SLRCONC	set	3865
    81   000000                     _SLRCONB	set	3857
    82   000000                     _ODCONE	set	3879
    83   000000                     _ODCOND	set	3871
    84   000000                     _ODCONC	set	3866
    85   000000                     _ODCONB	set	3858
    86   000000                     _WPUE	set	3880
    87   000000                     _WPUD	set	3872
    88   000000                     _WPUC	set	3867
    89   000000                     _WPUB	set	3859
    90   000000                     _ANSELE	set	3881
    91   000000                     _ANSELD	set	3873
    92   000000                     _ANSELC	set	3868
    93   000000                     _ANSELB	set	3860
    94   000000                     _TRISA	set	3975
    95   000000                     _LATE	set	3974
    96   000000                     _LATD	set	3973
    97   000000                     _LATB	set	3971
    98   000000                     _OSCTUNE	set	3800
    99   000000                     _OSCFRQ	set	3801
   100                           
   101                           	psect	nvCOMRAM
   102   000001                     __pnvCOMRAM:
   103                           	callstack 0
   104   000001                     _INT2_InterruptHandler:
   105                           	callstack 0
   106   000001                     	ds	3
   107   000004                     _INT1_InterruptHandler:
   108                           	callstack 0
   109   000004                     	ds	3
   110   000007                     _INT0_InterruptHandler:
   111                           	callstack 0
   112   000007                     	ds	3
   113   000000                     _TRISC	set	3977
   114   000000                     _TRISB	set	3976
   115   000000                     _LATC	set	3972
   116   000000                     _PIE0bits	set	3773
   117   000000                     _PIR0bits	set	3781
   118   000000                     _OSCCON1	set	3795
   119   000000                     _OSCCON3	set	3797
   120   000000                     _OSCEN	set	3799
   121   000000                     _IOCAF	set	3845
   122   000000                     _IOCAN	set	3846
   123   000000                     _IOCAP	set	3847
   124   000000                     _INLVLA	set	3848
   125   000000                     _SLRCONA	set	3849
   126   000000                     _ODCONA	set	3850
   127   000000                     _WPUA	set	3851
   128   000000                     _ANSELA	set	3852
   129   000000                     _LATA	set	3970
   130   000000                     _LATCbits	set	3972
   131   000000                     _TRISBbits	set	3976
   132   000000                     _PORTBbits	set	3981
   133   000000                     _INTCONbits	set	4082
   134   000000                     _TRISE	set	3979
   135   000000                     _TRISD	set	3978
   136   000000                     _TRISCbits	set	3977
   137                           
   138                           ; #config settings
   139                           
   140                           	psect	cinit
   141   00113A                     __pcinit:
   142                           	callstack 0
   143   00113A                     start_initialization:
   144                           	callstack 0
   145   00113A                     __initialization:
   146                           	callstack 0
   147   00113A                     end_of_initialization:
   148                           	callstack 0
   149   00113A                     __end_of__initialization:
   150                           	callstack 0
   151   00113A  9010               	bcf	int$flags,0,c	;clear compiler interrupt flag (level 1)
   152   00113C  9210               	bcf	int$flags,1,c	;clear compiler interrupt flag (level 2)
   153   00113E  0100               	movlb	0
   154   001140  EFD4  F007         	goto	_main	;jump to C main() function
   155                           
   156                           	psect	cstackCOMRAM
   157   00000A                     __pcstackCOMRAM:
   158                           	callstack 0
   159   00000A                     ??_debounce:
   160   00000A                     INT0_SetInterruptHandler@InterruptHandler:
   161                           	callstack 0
   162   00000A                     INT1_SetInterruptHandler@InterruptHandler:
   163                           	callstack 0
   164   00000A                     INT2_SetInterruptHandler@InterruptHandler:
   165                           	callstack 0
   166                           
   167                           ; 3 bytes @ 0x0
   168   00000A                     	ds	1
   169   00000B                     debounce@btn:
   170                           	callstack 0
   171                           
   172                           ; 1 bytes @ 0x1
   173   00000B                     	ds	2
   174   00000D                     ??_main:
   175                           
   176                           ; 1 bytes @ 0x3
   177   00000D                     	ds	2
   178   00000F                     main@buttonWasPressed:
   179                           	callstack 0
   180                           
   181                           ; 1 bytes @ 0x5
   182   00000F                     	ds	1
   183                           
   184 ;;
   185 ;;Main: autosize = 0, tempsize = 2, incstack = 0, save=0
   186 ;;
   187 ;; *************** function _main *****************
   188 ;; Defined at:
   189 ;;		line 58 in file "main.c"
   190 ;; Parameters:    Size  Location     Type
   191 ;;		None
   192 ;; Auto vars:     Size  Location     Type
   193 ;;  buttonWasPre    1    5[COMRAM] unsigned char 
   194 ;; Return value:  Size  Location     Type
   195 ;;                  2   34[None  ] int 
   196 ;; Registers used:
   197 ;;		wreg, status,2, status,0, cstack
   198 ;; Tracked objects:
   199 ;;		On entry : 0/0
   200 ;;		On exit  : 0/0
   201 ;;		Unchanged: 0/0
   202 ;; Data sizes:     COMRAM   BANK0   BANK1   BANK2   BANK3   BANK4   BANK5   BANK6   BANK7   BANK8   BANK9  BANK10  BANK1
      +1  BANK12  BANK14
   203 ;;      Params:         0       0       0       0       0       0       0       0       0       0       0       0       
      +0       0       0
   204 ;;      Locals:         1       0       0       0       0       0       0       0       0       0       0       0       
      +0       0       0
   205 ;;      Temps:          2       0       0       0       0       0       0       0       0       0       0       0       
      +0       0       0
   206 ;;      Totals:         3       0       0       0       0       0       0       0       0       0       0       0       
      +0       0       0
   207 ;;Total ram usage:        3 bytes
   208 ;; Hardware stack levels required when called: 5
   209 ;; This function calls:
   210 ;;		_SYSTEM_Initialize
   211 ;;		_debounce
   212 ;; This function is called by:
   213 ;;		Startup code after reset
   214 ;; This function uses a non-reentrant model
   215 ;;
   216                           
   217                           	psect	text0
   218   000FA8                     __ptext0:
   219                           	callstack 0
   220   000FA8                     _main:
   221                           	callstack 26
   222   000FA8                     
   223                           ;main.c: 60:     SYSTEM_Initialize();
   224   000FA8  EC81  F008         	call	_SYSTEM_Initialize	;wreg free
   225   000FAC  8088               	bsf	136,0,c	;volatile
   226   000FAE  9089               	bcf	137,0,c	;volatile
   227   000FB0  9289               	bcf	137,1,c	;volatile
   228   000FB2  8084               	bsf	132,0,c	;volatile
   229   000FB4  9284               	bcf	132,1,c	;volatile
   230   000FB6                     
   231                           ;main.c: 85:     _delay((unsigned long)((3000)*(64000000/4000.0)));
   232   000FB6  0EF4               	movlw	244
   233   000FB8  6E0E               	movwf	(??_main+1)^0,c
   234   000FBA  0E82               	movlw	130
   235   000FBC  6E0D               	movwf	??_main^0,c
   236   000FBE  0E05               	movlw	5
   237   000FC0                     u217:
   238   000FC0  2EE8               	decfsz	wreg,f,c
   239   000FC2  D7FE               	bra	u217
   240   000FC4  2E0D               	decfsz	??_main^0,f,c
   241   000FC6  D7FC               	bra	u217
   242   000FC8  2E0E               	decfsz	(??_main+1)^0,f,c
   243   000FCA  D7FA               	bra	u217
   244   000FCC  0000               	nop	
   245   000FCE                     l1079:
   246                           
   247                           ;main.c: 90:     {;main.c: 92:         if (debounce())
   248   000FCE  EC22  F008         	call	_debounce	;wreg free
   249   000FD2  0900               	iorlw	0
   250   000FD4  B4D8               	btfsc	status,2,c
   251   000FD6  EFEF  F007         	goto	u171
   252   000FDA  EFF1  F007         	goto	u170
   253   000FDE                     u171:
   254   000FDE  EFE7  F007         	goto	l1079
   255   000FE2                     u170:
   256   000FE2                     
   257                           ;main.c: 93:         {;main.c: 94:             if (buttonWasPressed == 0){
   258   000FE2  500F               	movf	main@buttonWasPressed^0,w,c
   259   000FE4  A4D8               	btfss	status,2,c
   260   000FE6  EFF7  F007         	goto	u181
   261   000FEA  EFF9  F007         	goto	u180
   262   000FEE                     u181:
   263   000FEE  EF1C  F008         	goto	l1085
   264   000FF2                     u180:
   265   000FF2  B084               	btfsc	132,0,c	;volatile
   266   000FF4  EFFE  F007         	goto	u191
   267   000FF8  EF01  F008         	goto	u190
   268   000FFC                     u191:
   269   000FFC  0E01               	movlw	1
   270   000FFE  EF02  F008         	goto	u196
   271   001002                     u190:
   272   001002  0E00               	movlw	0
   273   001004                     u196:
   274   001004  0AFF               	xorlw	255
   275   001006  6E0D               	movwf	??_main^0,c
   276   001008  5084               	movf	132,w,c	;volatile
   277   00100A  180D               	xorwf	??_main^0,w,c
   278   00100C  0BFE               	andlw	-2
   279   00100E  180D               	xorwf	??_main^0,w,c
   280   001010  6E84               	movwf	132,c	;volatile
   281   001012  B284               	btfsc	132,1,c	;volatile
   282   001014  EF0E  F008         	goto	u201
   283   001018  EF11  F008         	goto	u200
   284   00101C                     u201:
   285   00101C  0E01               	movlw	1
   286   00101E  EF12  F008         	goto	u206
   287   001022                     u200:
   288   001022  0E00               	movlw	0
   289   001024                     u206:
   290   001024  0AFF               	xorlw	255
   291   001026  6E0D               	movwf	??_main^0,c
   292   001028  460D               	rlncf	??_main^0,f,c
   293   00102A  5084               	movf	132,w,c	;volatile
   294   00102C  180D               	xorwf	??_main^0,w,c
   295   00102E  0BFD               	andlw	-3
   296   001030  180D               	xorwf	??_main^0,w,c
   297   001032  6E84               	movwf	132,c	;volatile
   298   001034  EFE7  F007         	goto	l1079
   299   001038                     l1085:
   300                           
   301                           ;main.c: 100:             {;main.c: 101:                 buttonWasPressed = 0;
   302   001038  0E00               	movlw	0
   303   00103A  6E0F               	movwf	main@buttonWasPressed^0,c
   304   00103C  EFE7  F007         	goto	l1079
   305   001040  EF18  F000         	goto	start
   306   001044                     __end_of_main:
   307                           	callstack 0
   308                           
   309 ;; *************** function _debounce *****************
   310 ;; Defined at:
   311 ;;		line 41 in file "main.c"
   312 ;; Parameters:    Size  Location     Type
   313 ;;		None
   314 ;; Auto vars:     Size  Location     Type
   315 ;;  btn             1    1[COMRAM] _Bool 
   316 ;; Return value:  Size  Location     Type
   317 ;;                  1    wreg      unsigned char 
   318 ;; Registers used:
   319 ;;		wreg, status,2, status,0
   320 ;; Tracked objects:
   321 ;;		On entry : 0/0
   322 ;;		On exit  : 0/0
   323 ;;		Unchanged: 0/0
   324 ;; Data sizes:     COMRAM   BANK0   BANK1   BANK2   BANK3   BANK4   BANK5   BANK6   BANK7   BANK8   BANK9  BANK10  BANK1
      +1  BANK12  BANK14
   325 ;;      Params:         0       0       0       0       0       0       0       0       0       0       0       0       
      +0       0       0
   326 ;;      Locals:         1       0       0       0       0       0       0       0       0       0       0       0       
      +0       0       0
   327 ;;      Temps:          1       0       0       0       0       0       0       0       0       0       0       0       
      +0       0       0
   328 ;;      Totals:         2       0       0       0       0       0       0       0       0       0       0       0       
      +0       0       0
   329 ;;Total ram usage:        2 bytes
   330 ;; Hardware stack levels used: 1
   331 ;; Hardware stack levels required when called: 2
   332 ;; This function calls:
   333 ;;		Nothing
   334 ;; This function is called by:
   335 ;;		_main
   336 ;; This function uses a non-reentrant model
   337 ;;
   338                           
   339                           	psect	text1
   340   001044                     __ptext1:
   341                           	callstack 0
   342   001044                     _debounce:
   343                           	callstack 28
   344   001044                     
   345                           ;main.c: 43:     _Bool btn;;main.c: 45:     btn = (_Bool)PORTBbits.RB0;
   346   001044  B08D               	btfsc	141,0,c	;volatile
   347   001046  EF27  F008         	goto	u11
   348   00104A  EF2A  F008         	goto	u10
   349   00104E                     u11:
   350   00104E  0E01               	movlw	1
   351   001050  EF2B  F008         	goto	u16
   352   001054                     u10:
   353   001054  0E00               	movlw	0
   354   001056                     u16:
   355   001056  6E0B               	movwf	debounce@btn^0,c
   356   001058                     
   357                           ;main.c: 46:     if (~btn)
   358   001058  040B               	decf	debounce@btn^0,w,c
   359   00105A  B4D8               	btfsc	status,2,c
   360   00105C  EF32  F008         	goto	u21
   361   001060  EF34  F008         	goto	u20
   362   001064                     u21:
   363   001064  EF50  F008         	goto	l983
   364   001068                     u20:
   365   001068                     
   366                           ;main.c: 47:     {;main.c: 48:         _delay((unsigned long)((10000)*(64000000/4000000.
      +                          0)));
   367   001068  0ED0               	movlw	208
   368   00106A  6E0A               	movwf	??_debounce^0,c
   369   00106C  0ECA               	movlw	202
   370   00106E                     u227:
   371   00106E  2EE8               	decfsz	wreg,f,c
   372   001070  D7FE               	bra	u227
   373   001072  2E0A               	decfsz	??_debounce^0,f,c
   374   001074  D7FC               	bra	u227
   375   001076                     
   376                           ;main.c: 49:         btn = (_Bool)PORTBbits.RB0;
   377   001076  B08D               	btfsc	141,0,c	;volatile
   378   001078  EF40  F008         	goto	u31
   379   00107C  EF43  F008         	goto	u30
   380   001080                     u31:
   381   001080  0E01               	movlw	1
   382   001082  EF44  F008         	goto	u36
   383   001086                     u30:
   384   001086  0E00               	movlw	0
   385   001088                     u36:
   386   001088  6E0B               	movwf	debounce@btn^0,c
   387   00108A                     
   388                           ;main.c: 50:         if (~btn)
   389   00108A  040B               	decf	debounce@btn^0,w,c
   390   00108C  B4D8               	btfsc	status,2,c
   391   00108E  EF4B  F008         	goto	u41
   392   001092  EF4D  F008         	goto	u40
   393   001096                     u41:
   394   001096  EF50  F008         	goto	l983
   395   00109A                     u40:
   396   00109A                     
   397                           ;main.c: 51:         {;main.c: 52:             return (1);
   398   00109A  0E01               	movlw	1
   399   00109C  EF51  F008         	goto	l30
   400   0010A0                     l983:
   401                           
   402                           ;main.c: 55:     return (0);
   403   0010A0  0E00               	movlw	0
   404   0010A2                     l30:
   405   0010A2  0012               	return		;funcret
   406   0010A4                     __end_of_debounce:
   407                           	callstack 0
   408                           
   409 ;; *************** function _SYSTEM_Initialize *****************
   410 ;; Defined at:
   411 ;;		line 38 in file "mcc_generated_files/system/src/system.c"
   412 ;; Parameters:    Size  Location     Type
   413 ;;		None
   414 ;; Auto vars:     Size  Location     Type
   415 ;;		None
   416 ;; Return value:  Size  Location     Type
   417 ;;                  1    wreg      void 
   418 ;; Registers used:
   419 ;;		wreg, status,2, status,0, cstack
   420 ;; Tracked objects:
   421 ;;		On entry : 0/0
   422 ;;		On exit  : 0/0
   423 ;;		Unchanged: 0/0
   424 ;; Data sizes:     COMRAM   BANK0   BANK1   BANK2   BANK3   BANK4   BANK5   BANK6   BANK7   BANK8   BANK9  BANK10  BANK1
      +1  BANK12  BANK14
   425 ;;      Params:         0       0       0       0       0       0       0       0       0       0       0       0       
      +0       0       0
   426 ;;      Locals:         0       0       0       0       0       0       0       0       0       0       0       0       
      +0       0       0
   427 ;;      Temps:          0       0       0       0       0       0       0       0       0       0       0       0       
      +0       0       0
   428 ;;      Totals:         0       0       0       0       0       0       0       0       0       0       0       0       
      +0       0       0
   429 ;;Total ram usage:        0 bytes
   430 ;; Hardware stack levels used: 1
   431 ;; Hardware stack levels required when called: 4
   432 ;; This function calls:
   433 ;;		_CLOCK_Initialize
   434 ;;		_INTERRUPT_Initialize
   435 ;;		_PIN_MANAGER_Initialize
   436 ;; This function is called by:
   437 ;;		_main
   438 ;; This function uses a non-reentrant model
   439 ;;
   440                           
   441                           	psect	text2
   442   001102                     __ptext2:
   443                           	callstack 0
   444   001102                     _SYSTEM_Initialize:
   445                           	callstack 26
   446   001102                     
   447                           ;mcc_generated_files/system/src/system.c: 40:     CLOCK_Initialize();
   448   001102  EC75  F008         	call	_CLOCK_Initialize	;wreg free
   449                           
   450                           ;mcc_generated_files/system/src/system.c: 41:     PIN_MANAGER_Initialize();
   451   001106  EC81  F007         	call	_PIN_MANAGER_Initialize	;wreg free
   452   00110A                     
   453                           ;mcc_generated_files/system/src/system.c: 42:     INTERRUPT_Initialize();
   454   00110A  EC52  F008         	call	_INTERRUPT_Initialize	;wreg free
   455   00110E  0012               	return		;funcret
   456   001110                     __end_of_SYSTEM_Initialize:
   457                           	callstack 0
   458                           
   459 ;; *************** function _PIN_MANAGER_Initialize *****************
   460 ;; Defined at:
   461 ;;		line 38 in file "mcc_generated_files/system/src/pins.c"
   462 ;; Parameters:    Size  Location     Type
   463 ;;		None
   464 ;; Auto vars:     Size  Location     Type
   465 ;;		None
   466 ;; Return value:  Size  Location     Type
   467 ;;                  1    wreg      void 
   468 ;; Registers used:
   469 ;;		wreg, status,2
   470 ;; Tracked objects:
   471 ;;		On entry : 0/0
   472 ;;		On exit  : 0/0
   473 ;;		Unchanged: 0/0
   474 ;; Data sizes:     COMRAM   BANK0   BANK1   BANK2   BANK3   BANK4   BANK5   BANK6   BANK7   BANK8   BANK9  BANK10  BANK1
      +1  BANK12  BANK14
   475 ;;      Params:         0       0       0       0       0       0       0       0       0       0       0       0       
      +0       0       0
   476 ;;      Locals:         0       0       0       0       0       0       0       0       0       0       0       0       
      +0       0       0
   477 ;;      Temps:          0       0       0       0       0       0       0       0       0       0       0       0       
      +0       0       0
   478 ;;      Totals:         0       0       0       0       0       0       0       0       0       0       0       0       
      +0       0       0
   479 ;;Total ram usage:        0 bytes
   480 ;; Hardware stack levels used: 1
   481 ;; Hardware stack levels required when called: 2
   482 ;; This function calls:
   483 ;;		Nothing
   484 ;; This function is called by:
   485 ;;		_SYSTEM_Initialize
   486 ;; This function uses a non-reentrant model
   487 ;;
   488                           
   489                           	psect	text3
   490   000F02                     __ptext3:
   491                           	callstack 0
   492   000F02                     _PIN_MANAGER_Initialize:
   493                           	callstack 27
   494   000F02                     
   495                           ;mcc_generated_files/system/src/pins.c: 43:     LATA = 0x0;
   496   000F02  0E00               	movlw	0
   497   000F04  6E82               	movwf	130,c	;volatile
   498                           
   499                           ;mcc_generated_files/system/src/pins.c: 44:     LATB = 0x0;
   500   000F06  0E00               	movlw	0
   501   000F08  6E83               	movwf	131,c	;volatile
   502                           
   503                           ;mcc_generated_files/system/src/pins.c: 45:     LATC = 0x0;
   504   000F0A  0E00               	movlw	0
   505   000F0C  6E84               	movwf	132,c	;volatile
   506                           
   507                           ;mcc_generated_files/system/src/pins.c: 46:     LATD = 0x0;
   508   000F0E  0E00               	movlw	0
   509   000F10  6E85               	movwf	133,c	;volatile
   510                           
   511                           ;mcc_generated_files/system/src/pins.c: 47:     LATE = 0x0;
   512   000F12  0E00               	movlw	0
   513   000F14  6E86               	movwf	134,c	;volatile
   514   000F16                     
   515                           ;mcc_generated_files/system/src/pins.c: 52:     TRISA = 0xFF;
   516   000F16  6887               	setf	135,c	;volatile
   517   000F18                     
   518                           ;mcc_generated_files/system/src/pins.c: 53:     TRISB = 0xFF;
   519   000F18  6888               	setf	136,c	;volatile
   520                           
   521                           ;mcc_generated_files/system/src/pins.c: 54:     TRISC = 0xFC;
   522   000F1A  0EFC               	movlw	252
   523   000F1C  6E89               	movwf	137,c	;volatile
   524   000F1E                     
   525                           ;mcc_generated_files/system/src/pins.c: 55:     TRISD = 0xFF;
   526   000F1E  688A               	setf	138,c	;volatile
   527                           
   528                           ;mcc_generated_files/system/src/pins.c: 56:     TRISE = 0x7;
   529   000F20  0E07               	movlw	7
   530   000F22  6E8B               	movwf	139,c	;volatile
   531   000F24                     
   532                           ;mcc_generated_files/system/src/pins.c: 61:     ANSELA = 0xFF;
   533   000F24  010F               	movlb	15	; () banked
   534   000F26  690C               	setf	12,b	;volatile
   535                           
   536                           ;mcc_generated_files/system/src/pins.c: 62:     ANSELB = 0xFE;
   537   000F28  0EFE               	movlw	254
   538   000F2A  6F14               	movwf	20,b	;volatile
   539                           
   540                           ;mcc_generated_files/system/src/pins.c: 63:     ANSELC = 0xFC;
   541   000F2C  0EFC               	movlw	252
   542   000F2E  6F1C               	movwf	28,b	;volatile
   543   000F30                     
   544                           ; BSR set to: 15
   545                           ;mcc_generated_files/system/src/pins.c: 64:     ANSELD = 0xFF;
   546   000F30  6921               	setf	33,b	;volatile
   547                           
   548                           ;mcc_generated_files/system/src/pins.c: 65:     ANSELE = 0x7;
   549   000F32  0E07               	movlw	7
   550   000F34  6F29               	movwf	41,b	;volatile
   551                           
   552                           ;mcc_generated_files/system/src/pins.c: 70:     WPUA = 0x0;
   553   000F36  0E00               	movlw	0
   554   000F38  6F0B               	movwf	11,b	;volatile
   555                           
   556                           ;mcc_generated_files/system/src/pins.c: 71:     WPUB = 0x0;
   557   000F3A  0E00               	movlw	0
   558   000F3C  6F13               	movwf	19,b	;volatile
   559                           
   560                           ;mcc_generated_files/system/src/pins.c: 72:     WPUC = 0x0;
   561   000F3E  0E00               	movlw	0
   562   000F40  6F1B               	movwf	27,b	;volatile
   563                           
   564                           ;mcc_generated_files/system/src/pins.c: 73:     WPUD = 0x0;
   565   000F42  0E00               	movlw	0
   566   000F44  6F20               	movwf	32,b	;volatile
   567                           
   568                           ;mcc_generated_files/system/src/pins.c: 74:     WPUE = 0x0;
   569   000F46  0E00               	movlw	0
   570   000F48  6F28               	movwf	40,b	;volatile
   571                           
   572                           ;mcc_generated_files/system/src/pins.c: 79:     ODCONA = 0x0;
   573   000F4A  0E00               	movlw	0
   574   000F4C  6F0A               	movwf	10,b	;volatile
   575                           
   576                           ;mcc_generated_files/system/src/pins.c: 80:     ODCONB = 0x0;
   577   000F4E  0E00               	movlw	0
   578   000F50  6F12               	movwf	18,b	;volatile
   579                           
   580                           ;mcc_generated_files/system/src/pins.c: 81:     ODCONC = 0x0;
   581   000F52  0E00               	movlw	0
   582   000F54  6F1A               	movwf	26,b	;volatile
   583                           
   584                           ;mcc_generated_files/system/src/pins.c: 82:     ODCOND = 0x0;
   585   000F56  0E00               	movlw	0
   586   000F58  6F1F               	movwf	31,b	;volatile
   587                           
   588                           ;mcc_generated_files/system/src/pins.c: 83:     ODCONE = 0x0;
   589   000F5A  0E00               	movlw	0
   590   000F5C  6F27               	movwf	39,b	;volatile
   591   000F5E                     
   592                           ; BSR set to: 15
   593                           ;mcc_generated_files/system/src/pins.c: 88:     SLRCONA = 0xFF;
   594   000F5E  6909               	setf	9,b	;volatile
   595   000F60                     
   596                           ; BSR set to: 15
   597                           ;mcc_generated_files/system/src/pins.c: 89:     SLRCONB = 0xFF;
   598   000F60  6911               	setf	17,b	;volatile
   599   000F62                     
   600                           ; BSR set to: 15
   601                           ;mcc_generated_files/system/src/pins.c: 90:     SLRCONC = 0xFF;
   602   000F62  6919               	setf	25,b	;volatile
   603   000F64                     
   604                           ; BSR set to: 15
   605                           ;mcc_generated_files/system/src/pins.c: 91:     SLRCOND = 0xFF;
   606   000F64  691E               	setf	30,b	;volatile
   607                           
   608                           ;mcc_generated_files/system/src/pins.c: 92:     SLRCONE = 0x7;
   609   000F66  0E07               	movlw	7
   610   000F68  6F26               	movwf	38,b	;volatile
   611   000F6A                     
   612                           ; BSR set to: 15
   613                           ;mcc_generated_files/system/src/pins.c: 97:     INLVLA = 0xFF;
   614   000F6A  6908               	setf	8,b	;volatile
   615   000F6C                     
   616                           ; BSR set to: 15
   617                           ;mcc_generated_files/system/src/pins.c: 98:     INLVLB = 0xFF;
   618   000F6C  6910               	setf	16,b	;volatile
   619   000F6E                     
   620                           ; BSR set to: 15
   621                           ;mcc_generated_files/system/src/pins.c: 99:     INLVLC = 0xFF;
   622   000F6E  6918               	setf	24,b	;volatile
   623   000F70                     
   624                           ; BSR set to: 15
   625                           ;mcc_generated_files/system/src/pins.c: 100:     INLVLD = 0xFF;
   626   000F70  691D               	setf	29,b	;volatile
   627                           
   628                           ;mcc_generated_files/system/src/pins.c: 101:     INLVLE = 0xF;
   629   000F72  0E0F               	movlw	15
   630   000F74  6F25               	movwf	37,b	;volatile
   631                           
   632                           ;mcc_generated_files/system/src/pins.c: 113:     IOCAP = 0x0;
   633   000F76  0E00               	movlw	0
   634   000F78  6F07               	movwf	7,b	;volatile
   635                           
   636                           ;mcc_generated_files/system/src/pins.c: 114:     IOCAN = 0x0;
   637   000F7A  0E00               	movlw	0
   638   000F7C  6F06               	movwf	6,b	;volatile
   639                           
   640                           ;mcc_generated_files/system/src/pins.c: 115:     IOCAF = 0x0;
   641   000F7E  0E00               	movlw	0
   642   000F80  6F05               	movwf	5,b	;volatile
   643                           
   644                           ;mcc_generated_files/system/src/pins.c: 116:     IOCBP = 0x0;
   645   000F82  0E00               	movlw	0
   646   000F84  6F0F               	movwf	15,b	;volatile
   647                           
   648                           ;mcc_generated_files/system/src/pins.c: 117:     IOCBN = 0x0;
   649   000F86  0E00               	movlw	0
   650   000F88  6F0E               	movwf	14,b	;volatile
   651                           
   652                           ;mcc_generated_files/system/src/pins.c: 118:     IOCBF = 0x0;
   653   000F8A  0E00               	movlw	0
   654   000F8C  6F0D               	movwf	13,b	;volatile
   655                           
   656                           ;mcc_generated_files/system/src/pins.c: 119:     IOCCP = 0x0;
   657   000F8E  0E00               	movlw	0
   658   000F90  6F17               	movwf	23,b	;volatile
   659                           
   660                           ;mcc_generated_files/system/src/pins.c: 120:     IOCCN = 0x0;
   661   000F92  0E00               	movlw	0
   662   000F94  6F16               	movwf	22,b	;volatile
   663                           
   664                           ;mcc_generated_files/system/src/pins.c: 121:     IOCCF = 0x0;
   665   000F96  0E00               	movlw	0
   666   000F98  6F15               	movwf	21,b	;volatile
   667                           
   668                           ;mcc_generated_files/system/src/pins.c: 122:     IOCEP = 0x0;
   669   000F9A  0E00               	movlw	0
   670   000F9C  6F24               	movwf	36,b	;volatile
   671                           
   672                           ;mcc_generated_files/system/src/pins.c: 123:     IOCEN = 0x0;
   673   000F9E  0E00               	movlw	0
   674   000FA0  6F23               	movwf	35,b	;volatile
   675                           
   676                           ;mcc_generated_files/system/src/pins.c: 124:     IOCEF = 0x0;
   677   000FA2  0E00               	movlw	0
   678   000FA4  6F22               	movwf	34,b	;volatile
   679   000FA6                     
   680                           ; BSR set to: 15
   681   000FA6  0012               	return		;funcret
   682   000FA8                     __end_of_PIN_MANAGER_Initialize:
   683                           	callstack 0
   684                           
   685 ;; *************** function _INTERRUPT_Initialize *****************
   686 ;; Defined at:
   687 ;;		line 42 in file "mcc_generated_files/system/src/interrupt.c"
   688 ;; Parameters:    Size  Location     Type
   689 ;;		None
   690 ;; Auto vars:     Size  Location     Type
   691 ;;		None
   692 ;; Return value:  Size  Location     Type
   693 ;;                  1    wreg      void 
   694 ;; Registers used:
   695 ;;		wreg, status,2, status,0, cstack
   696 ;; Tracked objects:
   697 ;;		On entry : 0/0
   698 ;;		On exit  : 0/0
   699 ;;		Unchanged: 0/0
   700 ;; Data sizes:     COMRAM   BANK0   BANK1   BANK2   BANK3   BANK4   BANK5   BANK6   BANK7   BANK8   BANK9  BANK10  BANK1
      +1  BANK12  BANK14
   701 ;;      Params:         0       0       0       0       0       0       0       0       0       0       0       0       
      +0       0       0
   702 ;;      Locals:         0       0       0       0       0       0       0       0       0       0       0       0       
      +0       0       0
   703 ;;      Temps:          0       0       0       0       0       0       0       0       0       0       0       0       
      +0       0       0
   704 ;;      Totals:         0       0       0       0       0       0       0       0       0       0       0       0       
      +0       0       0
   705 ;;Total ram usage:        0 bytes
   706 ;; Hardware stack levels used: 1
   707 ;; Hardware stack levels required when called: 3
   708 ;; This function calls:
   709 ;;		_INT0_SetInterruptHandler
   710 ;;		_INT1_SetInterruptHandler
   711 ;;		_INT2_SetInterruptHandler
   712 ;; This function is called by:
   713 ;;		_SYSTEM_Initialize
   714 ;; This function uses a non-reentrant model
   715 ;;
   716                           
   717                           	psect	text4
   718   0010A4                     __ptext4:
   719                           	callstack 0
   720   0010A4                     _INTERRUPT_Initialize:
   721                           	callstack 26
   722   0010A4                     
   723                           ;mcc_generated_files/system/src/interrupt.c: 45:     INTCONbits.IPEN = 0;
   724   0010A4  9AF2               	bcf	242,5,c	;volatile
   725                           
   726                           ;mcc_generated_files/system/src/interrupt.c: 49:     (PIR0bits.INT0IF = 0);
   727   0010A6  010E               	movlb	14	; () banked
   728   0010A8  91C5               	bcf	197,0,b	;volatile
   729                           
   730                           ;mcc_generated_files/system/src/interrupt.c: 50:     (INTCONbits.INT0EDG = 1);
   731   0010AA  80F2               	bsf	242,0,c	;volatile
   732   0010AC                     
   733                           ; BSR set to: 14
   734                           ;mcc_generated_files/system/src/interrupt.c: 52:     INT0_SetInterruptHandler(INT0_Defau
      +                          ltInterruptHandler);
   735   0010AC  0E00               	movlw	0
   736   0010AE  6E0A               	movwf	INT0_SetInterruptHandler@InterruptHandler^0,c
   737   0010B0  0E00               	movlw	0
   738   0010B2  6E0B               	movwf	(INT0_SetInterruptHandler@InterruptHandler+1)^0,c
   739   0010B4  0E00               	movlw	0
   740   0010B6  6E0C               	movwf	(INT0_SetInterruptHandler@InterruptHandler+2)^0,c
   741   0010B8  EC96  F008         	call	_INT0_SetInterruptHandler	;wreg free
   742   0010BC                     
   743                           ;mcc_generated_files/system/src/interrupt.c: 57:     (PIR0bits.INT1IF = 0);
   744   0010BC  010E               	movlb	14	; () banked
   745   0010BE  93C5               	bcf	197,1,b	;volatile
   746   0010C0                     
   747                           ; BSR set to: 14
   748                           ;mcc_generated_files/system/src/interrupt.c: 58:     (INTCONbits.INT1EDG = 1);
   749   0010C0  82F2               	bsf	242,1,c	;volatile
   750                           
   751                           ;mcc_generated_files/system/src/interrupt.c: 60:     INT1_SetInterruptHandler(INT1_Defau
      +                          ltInterruptHandler);
   752   0010C2  0E00               	movlw	0
   753   0010C4  6E0A               	movwf	INT1_SetInterruptHandler@InterruptHandler^0,c
   754   0010C6  0E00               	movlw	0
   755   0010C8  6E0B               	movwf	(INT1_SetInterruptHandler@InterruptHandler+1)^0,c
   756   0010CA  0E00               	movlw	0
   757   0010CC  6E0C               	movwf	(INT1_SetInterruptHandler@InterruptHandler+2)^0,c
   758   0010CE  EC8F  F008         	call	_INT1_SetInterruptHandler	;wreg free
   759   0010D2                     
   760                           ;mcc_generated_files/system/src/interrupt.c: 65:     (PIR0bits.INT2IF = 0);
   761   0010D2  010E               	movlb	14	; () banked
   762   0010D4  95C5               	bcf	197,2,b	;volatile
   763   0010D6                     
   764                           ; BSR set to: 14
   765                           ;mcc_generated_files/system/src/interrupt.c: 66:     (INTCONbits.INT2EDG = 1);
   766   0010D6  84F2               	bsf	242,2,c	;volatile
   767                           
   768                           ;mcc_generated_files/system/src/interrupt.c: 68:     INT2_SetInterruptHandler(INT2_Defau
      +                          ltInterruptHandler);
   769   0010D8  0E00               	movlw	0
   770   0010DA  6E0A               	movwf	INT2_SetInterruptHandler@InterruptHandler^0,c
   771   0010DC  0E00               	movlw	0
   772   0010DE  6E0B               	movwf	(INT2_SetInterruptHandler@InterruptHandler+1)^0,c
   773   0010E0  0E00               	movlw	0
   774   0010E2  6E0C               	movwf	(INT2_SetInterruptHandler@InterruptHandler+2)^0,c
   775   0010E4  EC88  F008         	call	_INT2_SetInterruptHandler	;wreg free
   776   0010E8  0012               	return		;funcret
   777   0010EA                     __end_of_INTERRUPT_Initialize:
   778                           	callstack 0
   779                           
   780 ;; *************** function _INT2_SetInterruptHandler *****************
   781 ;; Defined at:
   782 ;;		line 163 in file "mcc_generated_files/system/src/interrupt.c"
   783 ;; Parameters:    Size  Location     Type
   784 ;;  InterruptHan    3    0[COMRAM] PTR FTN()void 
   785 ;;		 -> INT2_DefaultInterruptHandler(1), 
   786 ;; Auto vars:     Size  Location     Type
   787 ;;		None
   788 ;; Return value:  Size  Location     Type
   789 ;;                  1    wreg      void 
   790 ;; Registers used:
   791 ;;		wreg, status,2, status,0
   792 ;; Tracked objects:
   793 ;;		On entry : 0/0
   794 ;;		On exit  : 0/0
   795 ;;		Unchanged: 0/0
   796 ;; Data sizes:     COMRAM   BANK0   BANK1   BANK2   BANK3   BANK4   BANK5   BANK6   BANK7   BANK8   BANK9  BANK10  BANK1
      +1  BANK12  BANK14
   797 ;;      Params:         3       0       0       0       0       0       0       0       0       0       0       0       
      +0       0       0
   798 ;;      Locals:         0       0       0       0       0       0       0       0       0       0       0       0       
      +0       0       0
   799 ;;      Temps:          0       0       0       0       0       0       0       0       0       0       0       0       
      +0       0       0
   800 ;;      Totals:         3       0       0       0       0       0       0       0       0       0       0       0       
      +0       0       0
   801 ;;Total ram usage:        3 bytes
   802 ;; Hardware stack levels used: 1
   803 ;; Hardware stack levels required when called: 2
   804 ;; This function calls:
   805 ;;		Nothing
   806 ;; This function is called by:
   807 ;;		_INTERRUPT_Initialize
   808 ;; This function uses a non-reentrant model
   809 ;;
   810                           
   811                           	psect	text5
   812   001110                     __ptext5:
   813                           	callstack 0
   814   001110                     _INT2_SetInterruptHandler:
   815                           	callstack 26
   816   001110                     
   817                           ;mcc_generated_files/system/src/interrupt.c: 164:     INT2_InterruptHandler = InterruptH
      +                          andler;
   818   001110  C00A  F001         	movff	INT2_SetInterruptHandler@InterruptHandler,_INT2_InterruptHandler
   819   001114  C00B  F002         	movff	INT2_SetInterruptHandler@InterruptHandler+1,_INT2_InterruptHandler+1
   820   001118  C00C  F003         	movff	INT2_SetInterruptHandler@InterruptHandler+2,_INT2_InterruptHandler+2
   821   00111C  0012               	return		;funcret
   822   00111E                     __end_of_INT2_SetInterruptHandler:
   823                           	callstack 0
   824                           
   825 ;; *************** function _INT1_SetInterruptHandler *****************
   826 ;; Defined at:
   827 ;;		line 137 in file "mcc_generated_files/system/src/interrupt.c"
   828 ;; Parameters:    Size  Location     Type
   829 ;;  InterruptHan    3    0[COMRAM] PTR FTN()void 
   830 ;;		 -> INT1_DefaultInterruptHandler(1), 
   831 ;; Auto vars:     Size  Location     Type
   832 ;;		None
   833 ;; Return value:  Size  Location     Type
   834 ;;                  1    wreg      void 
   835 ;; Registers used:
   836 ;;		wreg, status,2, status,0
   837 ;; Tracked objects:
   838 ;;		On entry : 0/0
   839 ;;		On exit  : 0/0
   840 ;;		Unchanged: 0/0
   841 ;; Data sizes:     COMRAM   BANK0   BANK1   BANK2   BANK3   BANK4   BANK5   BANK6   BANK7   BANK8   BANK9  BANK10  BANK1
      +1  BANK12  BANK14
   842 ;;      Params:         3       0       0       0       0       0       0       0       0       0       0       0       
      +0       0       0
   843 ;;      Locals:         0       0       0       0       0       0       0       0       0       0       0       0       
      +0       0       0
   844 ;;      Temps:          0       0       0       0       0       0       0       0       0       0       0       0       
      +0       0       0
   845 ;;      Totals:         3       0       0       0       0       0       0       0       0       0       0       0       
      +0       0       0
   846 ;;Total ram usage:        3 bytes
   847 ;; Hardware stack levels used: 1
   848 ;; Hardware stack levels required when called: 2
   849 ;; This function calls:
   850 ;;		Nothing
   851 ;; This function is called by:
   852 ;;		_INTERRUPT_Initialize
   853 ;; This function uses a non-reentrant model
   854 ;;
   855                           
   856                           	psect	text6
   857   00111E                     __ptext6:
   858                           	callstack 0
   859   00111E                     _INT1_SetInterruptHandler:
   860                           	callstack 26
   861   00111E                     
   862                           ;mcc_generated_files/system/src/interrupt.c: 138:     INT1_InterruptHandler = InterruptH
      +                          andler;
   863   00111E  C00A  F004         	movff	INT1_SetInterruptHandler@InterruptHandler,_INT1_InterruptHandler
   864   001122  C00B  F005         	movff	INT1_SetInterruptHandler@InterruptHandler+1,_INT1_InterruptHandler+1
   865   001126  C00C  F006         	movff	INT1_SetInterruptHandler@InterruptHandler+2,_INT1_InterruptHandler+2
   866   00112A  0012               	return		;funcret
   867   00112C                     __end_of_INT1_SetInterruptHandler:
   868                           	callstack 0
   869                           
   870 ;; *************** function _INT0_SetInterruptHandler *****************
   871 ;; Defined at:
   872 ;;		line 111 in file "mcc_generated_files/system/src/interrupt.c"
   873 ;; Parameters:    Size  Location     Type
   874 ;;  InterruptHan    3    0[COMRAM] PTR FTN()void 
   875 ;;		 -> INT0_DefaultInterruptHandler(1), 
   876 ;; Auto vars:     Size  Location     Type
   877 ;;		None
   878 ;; Return value:  Size  Location     Type
   879 ;;                  1    wreg      void 
   880 ;; Registers used:
   881 ;;		wreg, status,2, status,0
   882 ;; Tracked objects:
   883 ;;		On entry : 0/0
   884 ;;		On exit  : 0/0
   885 ;;		Unchanged: 0/0
   886 ;; Data sizes:     COMRAM   BANK0   BANK1   BANK2   BANK3   BANK4   BANK5   BANK6   BANK7   BANK8   BANK9  BANK10  BANK1
      +1  BANK12  BANK14
   887 ;;      Params:         3       0       0       0       0       0       0       0       0       0       0       0       
      +0       0       0
   888 ;;      Locals:         0       0       0       0       0       0       0       0       0       0       0       0       
      +0       0       0
   889 ;;      Temps:          0       0       0       0       0       0       0       0       0       0       0       0       
      +0       0       0
   890 ;;      Totals:         3       0       0       0       0       0       0       0       0       0       0       0       
      +0       0       0
   891 ;;Total ram usage:        3 bytes
   892 ;; Hardware stack levels used: 1
   893 ;; Hardware stack levels required when called: 2
   894 ;; This function calls:
   895 ;;		Nothing
   896 ;; This function is called by:
   897 ;;		_INTERRUPT_Initialize
   898 ;; This function uses a non-reentrant model
   899 ;;
   900                           
   901                           	psect	text7
   902   00112C                     __ptext7:
   903                           	callstack 0
   904   00112C                     _INT0_SetInterruptHandler:
   905                           	callstack 26
   906   00112C                     
   907                           ;mcc_generated_files/system/src/interrupt.c: 112:     INT0_InterruptHandler = InterruptH
      +                          andler;
   908   00112C  C00A  F007         	movff	INT0_SetInterruptHandler@InterruptHandler,_INT0_InterruptHandler
   909   001130  C00B  F008         	movff	INT0_SetInterruptHandler@InterruptHandler+1,_INT0_InterruptHandler+1
   910   001134  C00C  F009         	movff	INT0_SetInterruptHandler@InterruptHandler+2,_INT0_InterruptHandler+2
   911   001138  0012               	return		;funcret
   912   00113A                     __end_of_INT0_SetInterruptHandler:
   913                           	callstack 0
   914                           
   915 ;; *************** function _CLOCK_Initialize *****************
   916 ;; Defined at:
   917 ;;		line 39 in file "mcc_generated_files/system/src/clock.c"
   918 ;; Parameters:    Size  Location     Type
   919 ;;		None
   920 ;; Auto vars:     Size  Location     Type
   921 ;;		None
   922 ;; Return value:  Size  Location     Type
   923 ;;                  1    wreg      void 
   924 ;; Registers used:
   925 ;;		wreg, status,2
   926 ;; Tracked objects:
   927 ;;		On entry : 0/0
   928 ;;		On exit  : 0/0
   929 ;;		Unchanged: 0/0
   930 ;; Data sizes:     COMRAM   BANK0   BANK1   BANK2   BANK3   BANK4   BANK5   BANK6   BANK7   BANK8   BANK9  BANK10  BANK1
      +1  BANK12  BANK14
   931 ;;      Params:         0       0       0       0       0       0       0       0       0       0       0       0       
      +0       0       0
   932 ;;      Locals:         0       0       0       0       0       0       0       0       0       0       0       0       
      +0       0       0
   933 ;;      Temps:          0       0       0       0       0       0       0       0       0       0       0       0       
      +0       0       0
   934 ;;      Totals:         0       0       0       0       0       0       0       0       0       0       0       0       
      +0       0       0
   935 ;;Total ram usage:        0 bytes
   936 ;; Hardware stack levels used: 1
   937 ;; Hardware stack levels required when called: 2
   938 ;; This function calls:
   939 ;;		Nothing
   940 ;; This function is called by:
   941 ;;		_SYSTEM_Initialize
   942 ;; This function uses a non-reentrant model
   943 ;;
   944                           
   945                           	psect	text8
   946   0010EA                     __ptext8:
   947                           	callstack 0
   948   0010EA                     _CLOCK_Initialize:
   949                           	callstack 27
   950   0010EA                     
   951                           ;mcc_generated_files/system/src/clock.c: 42:     OSCCON1 = (0 << 0x0)
   952   0010EA  0E60               	movlw	96
   953   0010EC  010E               	movlb	14	; () banked
   954   0010EE  6FD3               	movwf	211,b	;volatile
   955                           
   956                           ;mcc_generated_files/system/src/clock.c: 44:     OSCCON3 = (0 << 0x6)
   957   0010F0  0E00               	movlw	0
   958   0010F2  6FD5               	movwf	213,b	;volatile
   959                           
   960                           ;mcc_generated_files/system/src/clock.c: 46:     OSCEN = (0 << 0x7)
   961   0010F4  0E00               	movlw	0
   962   0010F6  6FD7               	movwf	215,b	;volatile
   963                           
   964                           ;mcc_generated_files/system/src/clock.c: 52:     OSCFRQ = (8 << 0x0);
   965   0010F8  0E08               	movlw	8
   966   0010FA  6FD9               	movwf	217,b	;volatile
   967                           
   968                           ;mcc_generated_files/system/src/clock.c: 53:     OSCTUNE = (0 << 0x0);
   969   0010FC  0E00               	movlw	0
   970   0010FE  6FD8               	movwf	216,b	;volatile
   971   001100                     
   972                           ; BSR set to: 14
   973   001100  0012               	return		;funcret
   974   001102                     __end_of_CLOCK_Initialize:
   975                           	callstack 0
   976                           
   977 ;; *************** function _INTERRUPT_InterruptManager *****************
   978 ;; Defined at:
   979 ;;		line 80 in file "mcc_generated_files/system/src/interrupt.c"
   980 ;; Parameters:    Size  Location     Type
   981 ;;		None
   982 ;; Auto vars:     Size  Location     Type
   983 ;;		None
   984 ;; Return value:  Size  Location     Type
   985 ;;                  1    wreg      void 
   986 ;; Registers used:
   987 ;;		cstack
   988 ;; Tracked objects:
   989 ;;		On entry : 0/0
   990 ;;		On exit  : 0/0
   991 ;;		Unchanged: 0/0
   992 ;; Data sizes:     COMRAM   BANK0   BANK1   BANK2   BANK3   BANK4   BANK5   BANK6   BANK7   BANK8   BANK9  BANK10  BANK1
      +1  BANK12  BANK14
   993 ;;      Params:         0       0       0       0       0       0       0       0       0       0       0       0       
      +0       0       0
   994 ;;      Locals:         0       0       0       0       0       0       0       0       0       0       0       0       
      +0       0       0
   995 ;;      Temps:          0       0       0       0       0       0       0       0       0       0       0       0       
      +0       0       0
   996 ;;      Totals:         0       0       0       0       0       0       0       0       0       0       0       0       
      +0       0       0
   997 ;;Total ram usage:        0 bytes
   998 ;; Hardware stack levels used: 1
   999 ;; Hardware stack levels required when called: 1
  1000 ;; This function calls:
  1001 ;;		_PIN_MANAGER_IOC
  1002 ;; This function is called by:
  1003 ;;		Interrupt level 2
  1004 ;; This function uses a non-reentrant model
  1005 ;;
  1006                           
  1007                           	psect	intcode
  1008   000008                     __pintcode:
  1009                           	callstack 0
  1010   000008                     _INTERRUPT_InterruptManager:
  1011                           	callstack 26
  1012                           
  1013                           ; BSR set to: 14
  1014                           ;incstack = 0
  1015   000008  8210               	bsf	int$flags,1,c	;set compiler interrupt flag (level 2)
  1016   00000A                     
  1017                           ;mcc_generated_files/system/src/interrupt.c: 83:     if(PIE0bits.IOCIE == 1 && PIR0bits.
      +                          IOCIF == 1)
  1018   00000A  010E               	movlb	14	; () banked
  1019   00000C  A9BD               	btfss	189,4,b	;volatile
  1020   00000E  EF0B  F000         	goto	i2u9_41
  1021   000012  EF0D  F000         	goto	i2u9_40
  1022   000016                     i2u9_41:
  1023   000016  EF16  F000         	goto	i2l206
  1024   00001A                     i2u9_40:
  1025   00001A                     
  1026                           ; BSR set to: 14
  1027   00001A  A9C5               	btfss	197,4,b	;volatile
  1028   00001C  EF12  F000         	goto	i2u10_41
  1029   000020  EF14  F000         	goto	i2u10_40
  1030   000024                     i2u10_41:
  1031   000024  EF16  F000         	goto	i2l206
  1032   000028                     i2u10_40:
  1033   000028                     
  1034                           ; BSR set to: 14
  1035                           ;mcc_generated_files/system/src/interrupt.c: 84:     {;mcc_generated_files/system/src/in
      +                          terrupt.c: 85:         PIN_MANAGER_IOC();
  1036   000028  ECA2  F008         	call	_PIN_MANAGER_IOC	;wreg free
  1037   00002C                     i2l206:
  1038   00002C  9210               	bcf	int$flags,1,c	;clear compiler interrupt flag (level 2)
  1039   00002E  0011               	retfie		f
  1040   000030                     __end_of_INTERRUPT_InterruptManager:
  1041                           	callstack 0
  1042                           
  1043 ;; *************** function _PIN_MANAGER_IOC *****************
  1044 ;; Defined at:
  1045 ;;		line 129 in file "mcc_generated_files/system/src/pins.c"
  1046 ;; Parameters:    Size  Location     Type
  1047 ;;		None
  1048 ;; Auto vars:     Size  Location     Type
  1049 ;;		None
  1050 ;; Return value:  Size  Location     Type
  1051 ;;                  1    wreg      void 
  1052 ;; Registers used:
  1053 ;;		None
  1054 ;; Tracked objects:
  1055 ;;		On entry : 0/0
  1056 ;;		On exit  : 0/0
  1057 ;;		Unchanged: 0/0
  1058 ;; Data sizes:     COMRAM   BANK0   BANK1   BANK2   BANK3   BANK4   BANK5   BANK6   BANK7   BANK8   BANK9  BANK10  BANK1
      +1  BANK12  BANK14
  1059 ;;      Params:         0       0       0       0       0       0       0       0       0       0       0       0       
      +0       0       0
  1060 ;;      Locals:         0       0       0       0       0       0       0       0       0       0       0       0       
      +0       0       0
  1061 ;;      Temps:          0       0       0       0       0       0       0       0       0       0       0       0       
      +0       0       0
  1062 ;;      Totals:         0       0       0       0       0       0       0       0       0       0       0       0       
      +0       0       0
  1063 ;;Total ram usage:        0 bytes
  1064 ;; Hardware stack levels used: 1
  1065 ;; This function calls:
  1066 ;;		Nothing
  1067 ;; This function is called by:
  1068 ;;		_INTERRUPT_InterruptManager
  1069 ;; This function uses a non-reentrant model
  1070 ;;
  1071                           
  1072                           	psect	text10
  1073   001144                     __ptext10:
  1074                           	callstack 0
  1075   001144                     _PIN_MANAGER_IOC:
  1076                           	callstack 26
  1077   001144  0012               	return		;funcret
  1078   001146                     __end_of_PIN_MANAGER_IOC:
  1079                           	callstack 0
  1080                           
  1081                           	psect	smallconst
  1082   000F00                     __psmallconst:
  1083                           	callstack 0
  1084   000F00  00                 	db	0
  1085   000F01  00                 	db	0	; dummy byte at the end
  1086   000000                     
  1087                           	psect	rparam
  1088   000000                     
  1089                           	psect	temp
  1090   000010                     btemp:
  1091                           	callstack 0
  1092   000010                     	ds	1
  1093   000000                     int$flags	set	btemp
  1094   000000                     wtemp8	set	btemp+1
  1095   000000                     ttemp5	set	btemp+1
  1096   000000                     ttemp6	set	btemp+4
  1097   000000                     ttemp7	set	btemp+8
  1098                           
  1099                           	psect	config
  1100                           
  1101                           ;Config register CONFIG1L @ 0x300000
  1102                           ;	External Oscillator mode Selection bits
  1103                           ;	FEXTOSC = ECH, EC (external clock) above 8 MHz; PFM set to high power
  1104                           ;	Power-up default value for COSC bits
  1105                           ;	RSTOSC = HFINTOSC_64MHZ, HFINTOSC with HFFRQ = 64 MHz and CDIV = 1:1
  1106   300000                     	org	3145728
  1107   300000  8F                 	db	143
  1108                           
  1109                           ;Config register CONFIG1H @ 0x300001
  1110                           ;	Clock Out Enable bit
  1111                           ;	CLKOUTEN = OFF, CLKOUT function is disabled
  1112                           ;	Clock Switch Enable bit
  1113                           ;	CSWEN = ON, Writing to NOSC and NDIV is allowed
  1114                           ;	Fail-Safe Clock Monitor Enable bit
  1115                           ;	FCMEN = ON, Fail-Safe Clock Monitor enabled
  1116   300001                     	org	3145729
  1117   300001  FF                 	db	255
  1118                           
  1119                           ;Config register CONFIG2L @ 0x300002
  1120                           ;	Master Clear Enable bit
  1121                           ;	MCLRE = EXTMCLR, MCLR pin (RE3) is MCLR
  1122                           ;	Power-up Timer Enable bit
  1123                           ;	PWRTE = OFF, Power up timer disabled
  1124                           ;	Low-power BOR enable bit
  1125                           ;	LPBOREN = OFF, Low power BOR is disabled
  1126                           ;	Brown-out Reset Enable bits
  1127                           ;	BOREN = SBORDIS, Brown-out Reset enabled , SBOREN bit is ignored
  1128   300002                     	org	3145730
  1129   300002  FF                 	db	255
  1130                           
  1131                           ;Config register CONFIG2H @ 0x300003
  1132                           ;	Brown Out Reset Voltage selection bits
  1133                           ;	BORV = VBOR_190, Brown-out Reset Voltage (VBOR) set to 1.90V
  1134                           ;	ZCD Disable bit
  1135                           ;	ZCD = OFF, ZCD disabled. ZCD can be enabled by setting the ZCDSEN bit of ZCDCON
  1136                           ;	PPSLOCK bit One-Way Set Enable bit
  1137                           ;	PPS1WAY = ON, PPSLOCK bit can be cleared and set only once; PPS registers remain locke
      +                          d after one clear/set cycle
  1138                           ;	Stack Full/Underflow Reset Enable bit
  1139                           ;	STVREN = ON, Stack full/underflow will cause Reset
  1140                           ;	Extended Instruction Set Enable bit
  1141                           ;	XINST = OFF, Extended Instruction Set and Indexed Addressing Mode disabled
  1142   300003                     	org	3145731
  1143   300003  FF                 	db	255
  1144                           
  1145                           ;Config register CONFIG3L @ 0x300004
  1146                           ;	WDT Period Select bits
  1147                           ;	WDTCPS = WDTCPS_31, Divider ratio 1:65536; software control of WDTPS
  1148                           ;	WDT operating mode
  1149                           ;	WDTE = OFF, WDT Disabled
  1150   300004                     	org	3145732
  1151   300004  9F                 	db	159
  1152                           
  1153                           ;Config register CONFIG3H @ 0x300005
  1154                           ;	WDT Window Select bits
  1155                           ;	WDTCWS = WDTCWS_7, window always open (100%); software control; keyed access not requi
      +                          red
  1156                           ;	WDT input clock selector
  1157                           ;	WDTCCS = SC, Software Control
  1158   300005                     	org	3145733
  1159   300005  FF                 	db	255
  1160                           
  1161                           ;Config register CONFIG4L @ 0x300006
  1162                           ;	Write Protection Block 0
  1163                           ;	WRT0 = OFF, Block 0 (000800-003FFFh) not write-protected
  1164                           ;	Write Protection Block 1
  1165                           ;	WRT1 = OFF, Block 1 (004000-007FFFh) not write-protected
  1166                           ;	Write Protection Block 2
  1167                           ;	WRT2 = OFF, Block 2 (008000-00BFFFh) not write-protected
  1168                           ;	Write Protection Block 3
  1169                           ;	WRT3 = OFF, Block 3 (00C000-00FFFFh) not write-protected
  1170                           ;	Write Protection Block 4
  1171                           ;	WRT4 = OFF, Block 4 (010000-013FFFh) not write-protected
  1172                           ;	Write Protection Block 5
  1173                           ;	WRT5 = OFF, Block 5 (014000-017FFFh) not write-protected
  1174                           ;	Write Protection Block 6
  1175                           ;	WRT6 = OFF, Block 6 (018000-01BFFFh) not write-protected
  1176                           ;	Write Protection Block 7
  1177                           ;	WRT7 = OFF, Block 7 (01C000-01FFFFh) not write-protected
  1178   300006                     	org	3145734
  1179   300006  FF                 	db	255
  1180                           
  1181                           ;Config register CONFIG4H @ 0x300007
  1182                           ;	Configuration Register Write Protection bit
  1183                           ;	WRTC = OFF, Configuration registers (300000-30000Bh) not write-protected
  1184                           ;	Boot Block Write Protection bit
  1185                           ;	WRTB = OFF, Boot Block (000000-0007FFh) not write-protected
  1186                           ;	Data EEPROM Write Protection bit
  1187                           ;	WRTD = OFF, Data EEPROM not write-protected
  1188                           ;	Scanner Enable bit
  1189                           ;	SCANE = ON, Scanner module is available for use, SCANMD bit can control the module
  1190                           ;	Low Voltage Programming Enable bit
  1191                           ;	LVP = ON, Low voltage programming enabled. MCLR/VPP pin function is MCLR. MCLRE config
      +                          uration bit is ignored
  1192   300007                     	org	3145735
  1193   300007  FF                 	db	255
  1194                           
  1195                           ;Config register CONFIG5L @ 0x300008
  1196                           ;	UserNVM Program Memory Code Protection bit
  1197                           ;	CP = OFF, UserNVM code protection disabled
  1198                           ;	DataNVM Memory Code Protection bit
  1199                           ;	CPD = OFF, DataNVM code protection disabled
  1200   300008                     	org	3145736
  1201   300008  FF                 	db	255
  1202                           
  1203                           ;Config register CONFIG5H @ 0x300009
  1204                           ;	unspecified, using default values
  1205   300009                     	org	3145737
  1206   300009  FF                 	db	255
  1207                           
  1208                           ;Config register CONFIG6L @ 0x30000A
  1209                           ;	Table Read Protection Block 0
  1210                           ;	EBTR0 = OFF, Block 0 (000800-003FFFh) not protected from table reads executed in other
      +                           blocks
  1211                           ;	Table Read Protection Block 1
  1212                           ;	EBTR1 = OFF, Block 1 (004000-007FFFh) not protected from table reads executed in other
      +                           blocks
  1213                           ;	Table Read Protection Block 2
  1214                           ;	EBTR2 = OFF, Block 2 (008000-00BFFFh) not protected from table reads executed in other
      +                           blocks
  1215                           ;	Table Read Protection Block 3
  1216                           ;	EBTR3 = OFF, Block 3 (00C000-00FFFFh) not protected from table reads executed in other
      +                           blocks
  1217                           ;	Table Read Protection Block 4
  1218                           ;	EBTR4 = OFF, Block 4 (010000-013FFFh) not protected from table reads executed in other
      +                           blocks
  1219                           ;	Table Read Protection Block 5
  1220                           ;	EBTR5 = OFF, Block 5 (014000-017FFFh) not protected from table reads executed in other
      +                           blocks
  1221                           ;	Table Read Protection Block 6
  1222                           ;	EBTR6 = OFF, Block 6 (018000-01BFFFh) not protected from table reads executed in other
      +                           blocks
  1223                           ;	Table Read Protection Block 7
  1224                           ;	EBTR7 = OFF, Block 7 (01C000-01FFFFh) not protected from table reads executed in other
      +                           blocks
  1225   30000A                     	org	3145738
  1226   30000A  FF                 	db	255
  1227                           
  1228                           ;Config register CONFIG6H @ 0x30000B
  1229                           ;	Boot Block Table Read Protection bit
  1230                           ;	EBTRB = OFF, Boot Block (000000-0007FFh) not protected from table reads executed in ot
      +                          her blocks
  1231   30000B                     	org	3145739
  1232   30000B  FF                 	db	255
  1233                           tosu	equ	0xFFF
  1234                           tosh	equ	0xFFE
  1235                           tosl	equ	0xFFD
  1236                           stkptr	equ	0xFFC
  1237                           pclatu	equ	0xFFB
  1238                           pclath	equ	0xFFA
  1239                           pcl	equ	0xFF9
  1240                           tblptru	equ	0xFF8
  1241                           tblptrh	equ	0xFF7
  1242                           tblptrl	equ	0xFF6
  1243                           tablat	equ	0xFF5
  1244                           prodh	equ	0xFF4
  1245                           prodl	equ	0xFF3
  1246                           indf0	equ	0xFEF
  1247                           postinc0	equ	0xFEE
  1248                           postdec0	equ	0xFED
  1249                           preinc0	equ	0xFEC
  1250                           plusw0	equ	0xFEB
  1251                           fsr0h	equ	0xFEA
  1252                           fsr0l	equ	0xFE9
  1253                           wreg	equ	0xFE8
  1254                           indf1	equ	0xFE7
  1255                           postinc1	equ	0xFE6
  1256                           postdec1	equ	0xFE5
  1257                           preinc1	equ	0xFE4
  1258                           plusw1	equ	0xFE3
  1259                           fsr1h	equ	0xFE2
  1260                           fsr1l	equ	0xFE1
  1261                           bsr	equ	0xFE0
  1262                           indf2	equ	0xFDF
  1263                           postinc2	equ	0xFDE
  1264                           postdec2	equ	0xFDD
  1265                           preinc2	equ	0xFDC
  1266                           plusw2	equ	0xFDB
  1267                           fsr2h	equ	0xFDA
  1268                           fsr2l	equ	0xFD9
  1269                           status	equ	0xFD8

Data Sizes:
    Strings     0
    Constant    0
    Data        0
    BSS         0
    Persistent  9
    Stack       0

Auto Spaces:
    Space          Size  Autos    Used
    COMRAM           94      6      15
    BANK0           160      0       0
    BANK1           256      0       0
    BANK2           256      0       0
    BANK3           256      0       0
    BANK4           256      0       0
    BANK5           256      0       0
    BANK6           256      0       0
    BANK7           256      0       0
    BANK8           256      0       0
    BANK9           256      0       0
    BANK10          256      0       0
    BANK11          256      0       0
    BANK12          256      0       0
    BANK14           31      0       0

Pointer List with Targets:

    INT0_InterruptHandler	PTR FTN()void  size(3) Largest target is 1
		 -> INT0_DefaultInterruptHandler(), NULL(), 

    INT0_SetInterruptHandler@InterruptHandler	PTR FTN()void  size(3) Largest target is 1
		 -> INT0_DefaultInterruptHandler(), 

    INT1_InterruptHandler	PTR FTN()void  size(3) Largest target is 1
		 -> INT1_DefaultInterruptHandler(), NULL(), 

    INT1_SetInterruptHandler@InterruptHandler	PTR FTN()void  size(3) Largest target is 1
		 -> INT1_DefaultInterruptHandler(), 

    INT2_InterruptHandler	PTR FTN()void  size(3) Largest target is 1
		 -> INT2_DefaultInterruptHandler(), NULL(), 

    INT2_SetInterruptHandler@InterruptHandler	PTR FTN()void  size(3) Largest target is 1
		 -> INT2_DefaultInterruptHandler(), 


Critical Paths under _main in COMRAM

    _INTERRUPT_Initialize->_INT0_SetInterruptHandler
    _INTERRUPT_Initialize->_INT1_SetInterruptHandler
    _INTERRUPT_Initialize->_INT2_SetInterruptHandler

Critical Paths under _INTERRUPT_InterruptManager in COMRAM

    None.

Critical Paths under _main in BANK0

    None.

Critical Paths under _INTERRUPT_InterruptManager in BANK0

    None.

Critical Paths under _main in BANK1

    None.

Critical Paths under _INTERRUPT_InterruptManager in BANK1

    None.

Critical Paths under _main in BANK2

    None.

Critical Paths under _INTERRUPT_InterruptManager in BANK2

    None.

Critical Paths under _main in BANK3

    None.

Critical Paths under _INTERRUPT_InterruptManager in BANK3

    None.

Critical Paths under _main in BANK4

    None.

Critical Paths under _INTERRUPT_InterruptManager in BANK4

    None.

Critical Paths under _main in BANK5

    None.

Critical Paths under _INTERRUPT_InterruptManager in BANK5

    None.

Critical Paths under _main in BANK6

    None.

Critical Paths under _INTERRUPT_InterruptManager in BANK6

    None.

Critical Paths under _main in BANK7

    None.

Critical Paths under _INTERRUPT_InterruptManager in BANK7

    None.

Critical Paths under _main in BANK8

    None.

Critical Paths under _INTERRUPT_InterruptManager in BANK8

    None.

Critical Paths under _main in BANK9

    None.

Critical Paths under _INTERRUPT_InterruptManager in BANK9

    None.

Critical Paths under _main in BANK10

    None.

Critical Paths under _INTERRUPT_InterruptManager in BANK10

    None.

Critical Paths under _main in BANK11

    None.

Critical Paths under _INTERRUPT_InterruptManager in BANK11

    None.

Critical Paths under _main in BANK12

    None.

Critical Paths under _INTERRUPT_InterruptManager in BANK12

    None.

Critical Paths under _main in BANK14

    None.

Critical Paths under _INTERRUPT_InterruptManager in BANK14

    None.

Call Graph Tables:

 ---------------------------------------------------------------------------------
 (Depth) Function   	        Calls       Base Space   Used Autos Params    Refs
 ---------------------------------------------------------------------------------
 (0) _main                                                 3     3      0     347
                                              3 COMRAM     3     3      0
                  _SYSTEM_Initialize
                           _debounce
 ---------------------------------------------------------------------------------
 (1) _debounce                                             2     2      0      30
                                              0 COMRAM     2     2      0
 ---------------------------------------------------------------------------------
 (1) _SYSTEM_Initialize                                    0     0      0     294
                   _CLOCK_Initialize
               _INTERRUPT_Initialize
             _PIN_MANAGER_Initialize
 ---------------------------------------------------------------------------------
 (2) _PIN_MANAGER_Initialize                               0     0      0       0
 ---------------------------------------------------------------------------------
 (2) _INTERRUPT_Initialize                                 0     0      0     294
           _INT0_SetInterruptHandler
           _INT1_SetInterruptHandler
           _INT2_SetInterruptHandler
 ---------------------------------------------------------------------------------
 (3) _INT2_SetInterruptHandler                             3     0      3      98
                                              0 COMRAM     3     0      3
 ---------------------------------------------------------------------------------
 (3) _INT1_SetInterruptHandler                             3     0      3      98
                                              0 COMRAM     3     0      3
 ---------------------------------------------------------------------------------
 (3) _INT0_SetInterruptHandler                             3     0      3      98
                                              0 COMRAM     3     0      3
 ---------------------------------------------------------------------------------
 (2) _CLOCK_Initialize                                     0     0      0       0
 ---------------------------------------------------------------------------------
 Estimated maximum stack depth 3
 ---------------------------------------------------------------------------------
 (Depth) Function   	        Calls       Base Space   Used Autos Params    Refs
 ---------------------------------------------------------------------------------
 (4) _INTERRUPT_InterruptManager                           0     0      0       0
                    _PIN_MANAGER_IOC
 ---------------------------------------------------------------------------------
 (5) _PIN_MANAGER_IOC                                      0     0      0       0
 ---------------------------------------------------------------------------------
 Estimated maximum stack depth 5
 ---------------------------------------------------------------------------------

 Call Graph Graphs:

 _main (ROOT)
   _SYSTEM_Initialize
     _CLOCK_Initialize
     _INTERRUPT_Initialize
       _INT0_SetInterruptHandler
       _INT1_SetInterruptHandler
       _INT2_SetInterruptHandler
     _PIN_MANAGER_Initialize
   _debounce

 _INTERRUPT_InterruptManager (ROOT)
   _PIN_MANAGER_IOC

 Address spaces:
Name               Size   Autos  Total    Cost      Usage
BITCOMRAM           5E      0       0       0        0.0%
EEDATA             400      0       0       0        0.0%
NULL                 0      0       0       0        0.0%
CODE                 0      0       0       0        0.0%
COMRAM              5E      6       F       1       16.0%
STACK                0      0       0       2        0.0%
DATA                 0      0       F       3        0.0%
BITBANK0            A0      0       0       4        0.0%
BANK0               A0      0       0       5        0.0%
BITBANK1           100      0       0       6        0.0%
BANK1              100      0       0       7        0.0%
BITBANK2           100      0       0       8        0.0%
BANK2              100      0       0       9        0.0%
BITBANK3           100      0       0      10        0.0%
BANK3              100      0       0      11        0.0%
BITBANK4           100      0       0      12        0.0%
BANK4              100      0       0      13        0.0%
BITBANK5           100      0       0      14        0.0%
BANK5              100      0       0      15        0.0%
BITBANK6           100      0       0      16        0.0%
BANK6              100      0       0      17        0.0%
BITBANK7           100      0       0      18        0.0%
BANK7              100      0       0      19        0.0%
BITBANK8           100      0       0      20        0.0%
BANK8              100      0       0      21        0.0%
BITBANK9           100      0       0      22        0.0%
BANK9              100      0       0      23        0.0%
BITBANK10          100      0       0      24        0.0%
BANK10             100      0       0      25        0.0%
BITBANK11          100      0       0      26        0.0%
BANK11             100      0       0      27        0.0%
BITBANK12          100      0       0      28        0.0%
BANK12             100      0       0      29        0.0%
BITBANK14           1F      0       0      30        0.0%
BANK14              1F      0       0      31        0.0%
BITBIGSFR_1hhhh      D      0       0      32        0.0%
BITBIGSFR_1hhhh     64      0       0      33        0.0%
BITBIGSFR_1hhhh      1      0       0      34        0.0%
BITBIGSFR_1hhhh     58      0       0      35        0.0%
BITBIGSFR_1hhhh     2B      0       0      36        0.0%
BITBIGSFR_1hhl       1      0       0      37        0.0%
BITBIGSFR_1hl        1      0       0      38        0.0%
BITBIGSFR_1lh        D      0       0      39        0.0%
BITBIGSFR_1llh       7      0       0      40        0.0%
BITBIGSFR_1lll      9E      0       0      41        0.0%
BITBIGSFR          100      0       0      42        0.0%
ABS                  0      0       F      43        0.0%
BIGRAM_1            1F      0       0      44        0.0%
BIGRAM             CFF      0       0      45        0.0%
BIGSFR_1             0      0       0     200        0.0%
BIGSFR               0      0       0     200        0.0%
BITSFR_3             0      0       0     200        0.0%
SFR_3                0      0       0     200        0.0%
BITSFR_2             0      0       0     200        0.0%
SFR_2                0      0       0     200        0.0%
BITSFR_1             0      0       0     200        0.0%
SFR_1                0      0       0     200        0.0%
BITSFR               0      0       0     200        0.0%
SFR                  0      0       0     200        0.0%


Microchip Technology PIC18 Macro Assembler V2.46 build 20240104201356 
Symbol Table                                                                                   Wed May 29 22:48:24 2024

                                      l13 1100                                        l30 10A2  
                                      l50 1012                                        u10 1054  
                                      u11 104E                                        u20 1068  
                                      u21 1064                                        u30 1086  
                                      u31 1080                                        u40 109A  
                                      u16 1056                                        u41 1096  
                                      u36 1088                                       l216 1138  
                                     l152 0FA6                                       l242 111C  
                                     l164 110E                                       l229 112A  
                                     l199 10E8                                       l931 0F16  
                                     l941 0F5E                                       l933 0F18  
                                     l927 10EA                                       l951 0F6C  
                                     l943 0F60                                       l935 0F1E  
                                     l953 0F6E                                       l945 0F62  
                                     l937 0F24                                       l929 0F02  
                                     l955 0F70                                       l947 0F64  
                                     l939 0F30                                       l971 1058  
                                     l949 0F6A                                       l973 1068  
                                     l975 1076                                       l983 10A0  
                                     l977 108A                                       l969 1044  
                                     l979 109A                                       u200 1022  
                                     u201 101C                                       u206 1024  
                                     u217 0FC0                                       u170 0FE2  
                                     u227 106E                                       u171 0FDE  
                                     u180 0FF2                                       u181 0FEE  
                                     u190 1002                                       u191 0FFC  
                                     u196 1004                ??_INT0_SetInterruptHandler 000D  
                                     wreg 0FE8                                      l1043 112C  
                                    l1051 10AC                                      l1045 111E  
                                    l1053 10BC                                      l1061 1102  
                                    l1047 1110                                      l1055 10C0  
                                    l1063 110A                                      l1071 0FB0  
                                    l1057 10D2                                      l1049 10A4  
                                    l1081 0FE2                                      l1073 0FB2  
                                    l1065 0FA8                                      l1059 10D6  
                                    l1083 0FF2                                      l1075 0FB4  
                                    l1067 0FAC                                      l1085 1038  
                                    l1077 0FB6                                      l1069 0FAE  
                                    l1079 0FCE                                      _LATA 0F82  
                                    _LATB 0F83                                      _LATC 0F84  
                                    _LATD 0F85                                      _LATE 0F86  
                                    _WPUA 0F0B                                      _WPUB 0F13  
                                    _WPUC 0F1B                                      _WPUD 0F20  
                                    _WPUE 0F28                                      _main 0FA8  
                                    btemp 0010                 ?_INT2_SetInterruptHandler 000A  
                                    start 0030                              ___param_bank 0000  
                                   ?_main 000A                                     _IOCAF 0F05  
                                   _IOCBF 0F0D                                     _IOCCF 0F15  
                                   _IOCAN 0F06                                     _IOCEF 0F22  
                                   _IOCAP 0F07                                     _IOCBN 0F0E  
                                   _IOCBP 0F0F                                     _IOCCN 0F16  
                                   _IOCCP 0F17                                     _IOCEN 0F23  
                                   _IOCEP 0F24                                     i2l206 002C  
                                   i2l155 1144                                     _OSCEN 0ED7  
                                   _TRISA 0F87                                     _TRISB 0F88  
                                   _TRISC 0F89                                     _TRISD 0F8A  
                                   _TRISE 0F8B                   __end_of_PIN_MANAGER_IOC 1146  
                _INT1_SetInterruptHandler 111E                                     ttemp5 0011  
                                   ttemp6 0014                                     ttemp7 0018  
                                   status 0FD8                                     wtemp8 0011  
                         __initialization 113A                              __end_of_main 1044  
             ?_INTERRUPT_InterruptManager 000A                                    ??_main 000D  
                           __activetblptr 0003                                    _ANSELA 0F0C  
                                  _ANSELB 0F14                                    _ANSELC 0F1C  
                                  _ANSELD 0F21                                    _ANSELE 0F29  
                                  _ODCONA 0F0A                                    _ODCONB 0F12  
                                  _ODCONC 0F1A                                    _ODCOND 0F1F  
                                  _ODCONE 0F27                                    i2l1013 000A  
                                  i2l1015 001A                                    i2l1017 0028  
                                  _INLVLA 0F08                                    _INLVLB 0F10  
                                  _INLVLC 0F18                                    _INLVLD 0F1D  
                                  _INLVLE 0F25                                    _OSCFRQ 0ED9  
                                  i2u9_40 001A                                    i2u9_41 0016  
                        __end_of_debounce 10A4                                    isa$std 0001  
                       ?_CLOCK_Initialize 000A              _INT2_DefaultInterruptHandler 0000  
                      ??_CLOCK_Initialize 000A                              __mediumconst 0000  
INT2_SetInterruptHandler@InterruptHandler 000A  INT1_SetInterruptHandler@InterruptHandler 000A  
INT0_SetInterruptHandler@InterruptHandler 000A                          ?_PIN_MANAGER_IOC 000A  
                       _SYSTEM_Initialize 1102                                __accesstop 0060  
                 __end_of__initialization 113A                        ?_SYSTEM_Initialize 000A  
                           ___rparam_used 0001                            __pcstackCOMRAM 000A  
                     ??_SYSTEM_Initialize 000D          __end_of_INT2_SetInterruptHandler 111E  
               __end_of_SYSTEM_Initialize 1110                      main@buttonWasPressed 000F  
                   _INT0_InterruptHandler 0007                                __pnvCOMRAM 0001  
              ??_INT1_SetInterruptHandler 000D                                 ?_debounce 000A  
                                 _OSCCON1 0ED3                                   _OSCCON3 0ED5  
                                 i2u10_40 0028                                   i2u10_41 0024  
                                 _OSCTUNE 0ED8                                   _SLRCONA 0F09  
                                 _SLRCONB 0F11                                   _SLRCONC 0F19  
                                 _SLRCOND 0F1E                                   _SLRCONE 0F26  
               ?_INT0_SetInterruptHandler 000A                                   __Hparam 0000  
                                 __Lparam 0000                              __psmallconst 0F00  
                                 __pcinit 113A                                   __ramtop 0F00  
                                 __ptext0 0FA8                                   __ptext1 1044  
                                 __ptext2 1102                                   __ptext3 0F02  
                                 __ptext4 10A4                                   __ptext5 1110  
                                 __ptext6 111E                                   __ptext7 112C  
                                 __ptext8 10EA                                ??_debounce 000A  
                ??_PIN_MANAGER_Initialize 000A                      end_of_initialization 113A  
                _INT2_SetInterruptHandler 1110                     _INT1_InterruptHandler 0004  
                               _PORTBbits 0F8D                                 _TRISBbits 0F88  
                               _TRISCbits 0F89              __end_of_INTERRUPT_Initialize 10EA  
            _INT0_DefaultInterruptHandler 0000                       start_initialization 113A  
        __end_of_INT0_SetInterruptHandler 113A                     _INT2_InterruptHandler 0001  
                  _PIN_MANAGER_Initialize 0F02                                 __pintcode 0008  
            ??_INTERRUPT_InterruptManager 000A                               __smallconst 0F00  
              ??_INT2_SetInterruptHandler 000D                      _INTERRUPT_Initialize 10A4  
                        _CLOCK_Initialize 10EA                                  _LATCbits 0F84  
               ?_INT1_SetInterruptHandler 000A                                  _PIE0bits 0EBD  
                                _PIR0bits 0EC5                         ??_PIN_MANAGER_IOC 000A  
                   ?_INTERRUPT_Initialize 000A                  _INT0_SetInterruptHandler 112C  
                                __Hrparam 0000                                  __Lrparam 0000  
                                _debounce 1044                                  __ptext10 1144  
                             debounce@btn 000B                                  isa$xinst 0000  
                                int$flags 0010        __end_of_INTERRUPT_InterruptManager 0030  
              _INTERRUPT_InterruptManager 0008              _INT1_DefaultInterruptHandler 0000  
                              _INTCONbits 0FF2                    ??_INTERRUPT_Initialize 000D  
                                intlevel2 0000                   ?_PIN_MANAGER_Initialize 000A  
                __end_of_CLOCK_Initialize 1102          __end_of_INT1_SetInterruptHandler 112C  
          __end_of_PIN_MANAGER_Initialize 0FA8                           _PIN_MANAGER_IOC 1144  
